:020000040800F2
:1000000000C00020A95700084B5700084D570008B2
:100010004F570008515700085357000800000000D0
:10002000000000000000000000000000555700081C
:100030005757000800000000595700085B57000898
:10004000F1570008F1570008F1570008F157000870
:10005000F1570008F1570008F1570008F157000860
:10006000F1570008F1570008F1570008E14F000868
:10007000F1570008F1570008895700089957000800
:10008000F1570008F1570008F1570008F157000830
:10009000F1570008F1570008F1570008F157000820
:1000A000F1570008F1570008F1570008F157000810
:1000B000F1570008F1570008F15700086957000888
:1000C00079570008F1570008F1570008F157000868
:1000D000F1570008F1570008F1570008F1570008E0
:1000E000F1570008F1570008F1570008F1570008D0
:1000F000F1570008F1570008F1570008F1570008C0
:10010000F1570008F1570008F1570008F1570008AF
:10011000F1570008F1570008F1570008F15700089F
:10012000F1570008F1570008F1570008F15700088F
:1001300000000000000000000000000000000000BF
:1001400000000000000000000000000000000000AF
:10015000000000000000000000000000000000009F
:10016000000000000000000000000000000000008F
:10017000000000000000000000000000000000007F
:10018000000000000000000000000000000000006F
:10019000000000000000000000000000000000005F
:1001A000000000000000000000000000000000004F
:1001B000000000000000000000000000000000003F
:1001C000000000000000000000000000000000002F
:1001D000000000000000000000000000000000001F
:0401E0005FF8E0F1F3
:1001E80010B5054C237833B9044B13B10448AFF369
:1001F80000800123237010BD2400002000000000AF
:100208003C58000808B5034B1BB103490348AFF33A
:10021800008008BD00000000280000203C580008AD
:1002280081F0004102E000BF83F0004330B54FEA9F
:1002380041044FEA430594EA050F08BF90EA020F0C
:100248001FBF54EA000C55EA020C7FEA645C7FEA9F
:10025800655C00F0E2804FEA5454D4EB5555B8BFC2
:100268006D420CDD2C4480EA020281EA030382EA33
:10027800000083EA010180EA020281EA0303362DC5
:1002880088BF30BD11F0004F4FEA01314FF4801C98
:100298004CEA113102D0404261EB410113F0004FAA
:1002A8004FEA03334CEA133302D0524263EB430361
:1002B80094EA050F00F0A780A4F10104D5F1200EFF
:1002C8000DDB02FA0EFC22FA05F2801841F100015A
:1002D80003FA0EF2801843FA05F359410EE0A5F12E
:1002E80020050EF1200E012A03FA0EFC28BF4CF05F
:1002F800020C43FA05F3C01851EBE37101F0004515
:1003080007D54FF0000EDCF1000C7EEB00006EEB21
:100318000101B1F5801F1BD3B1F5001F0CD34908AB
:100328005FEA30004FEA3C0C04F101044FEA445202
:1003380012F5800F80F09A80BCF1004F08BF5FEA89
:10034800500C50F1000041EB045141EA050130BD69
:100358005FEA4C0C404141EB010111F4801FA4F10C
:100368000104E9D191F0000F04BF01460020B1FA61
:1003780081F308BF2033A3F10B03B3F120020CDA99
:100388000C3208DD02F1140CC2F10C0201FA0CF077
:1003980021FA02F10CE002F11402D8BFC2F1200CDC
:1003A80001FA02F120FA0CFCDCBF41EA0C01904092
:1003B800E41AA2BF01EB0451294330BD6FEA0404DB
:1003C8001F3C1CDA0C340EDC04F11404C4F12002C6
:1003D80020FA04F001FA02F340EA030021FA04F3D8
:1003E80045EA030130BDC4F10C04C4F1200220FA2F
:1003F80002F001FA04F340EA0300294630BD21FA6D
:1004080004F0294630BD94F0000F83F4801306BF32
:1004180081F480110134013D4EE77FEA645C18BF26
:100428007FEA655C29D094EA050F08BF90EA020FBD
:1004380005D054EA000C04BF1946104630BD91EAB5
:10044800030F1EBF0021002030BD5FEA545C05D1B8
:100458004000494128BF41F0004130BD14F58004F7
:100468003CBF01F5801130BD01F0004545F0FE416B
:1004780041F470014FF0000030BD7FEA645C1ABFA0
:10048800194610467FEA655C1CBF0B46024650EAD7
:10049800013406BF52EA033591EA030F41F4002103
:1004A80030BD00BF90F0000F04BF0021704730B589
:1004B8004FF4806404F132044FF000054FF000015E
:1004C80050E700BF90F0000F04BF0021704730B51F
:1004D8004FF4806404F1320410F0004548BF4042F4
:1004E8004FF000013EE700BF42004FEAE2014FEA49
:1004F80031014FEA02701FBF12F07F4393F07F4F24
:1005080081F06051704732F07F4208BF704793F026
:100518007F4F04BF41F40021704730B54FF4607439
:1005280001F0004521F000411CE700BF50EA01023C
:1005380008BF704730B54FF000050AE050EA0102E5
:1005480008BF704730B511F0004502D5404261EB55
:1005580041014FF4806404F132045FEA915C3FF496
:10056800D8AE4FF003025FEADC0C18BF03325FEA33
:10057800DC0C18BF033202EBDC02C2F1200300FAE4
:1005880003FC20FA02F001FA03FE40EA0E0021FA09
:1005980002F11444BDE600BF70B54FF0FF0C4CF4F7
:1005A800E06C1CEA11541DBF1CEA135594EA0C0FA9
:1005B80095EA0C0F00F0DEF82C4481EA030621EAE4
:1005C8004C5123EA4C5350EA013518BF52EA03351F
:1005D80041F4801143F4801338D0A0FB02CE4FF0D1
:1005E8000005E1FB02E506F00042E0FB03E54FF001
:1005F8000006E1FB03569CF0000F18BF4EF0010EF9
:10060800A4F1FF04B6F5007F64F5407404D25FEAF4
:100618004E0E6D4146EB060642EAC62141EA5551A7
:100628004FEAC52040EA5E504FEACE2EB4F1FD0CE9
:1006380088BFBCF5E06F1ED8BEF1004F08BF5FEA67
:10064800500E50F1000041EB045170BD06F0004619
:1006580046EA010140EA020081EA0301B4EB5C04C6
:10066800C2BFD4EB0C0541EA045170BD41F48011BE
:100678004FF0000E013C00F3AB8014F1360FDEBFE3
:10068800002001F0004170BDC4F10004203C35DABF
:100698000C341BDC04F11404C4F1200500FA05F342
:1006A80020FA04F001FA05F240EA020001F00042E3
:1006B80021F0004110EBD37021FA04F642EB060159
:1006C8005EEA430E08BF20EAD37070BDC4F10C0483
:1006D800C4F1200500FA04F320FA05F001FA04F247
:1006E80040EA020001F0004110EBD37041F1000133
:1006F8005EEA430E08BF20EAD37070BDC4F120053E
:1007080000FA05F24EEA020E20FA04F301FA05F2A5
:1007180043EA020321FA04F001F0004121FA04F24D
:1007280020EA020000EBD3705EEA430E08BF20EA1D
:10073800D37070BD94F0000F0FD101F00046400057
:1007480041EB010111F4801F08BF013CF7D041EAD9
:10075800060195F0000F18BF704703F000465200DD
:1007680043EB030313F4801F08BF013DF7D043EAAE
:100778000603704794EA0C0F0CEA135518BF95EA64
:100788000C0F0CD050EA410618BF52EA4306D1D1EB
:1007980081EA030101F000414FF0000070BD50EA0A
:1007A800410606BF1046194652EA430619D094EA94
:1007B8000C0F02D150EA013613D195EA0C0F05D17E
:1007C80052EA03361CBF104619460AD181EA0301D2
:1007D80001F0004141F0FE4141F470014FF000008A
:1007E80070BD41F0FE4141F4780170BD70B54FF025
:1007F800FF0C4CF4E06C1CEA11541DBF1CEA1355A5
:1008080094EA0C0F95EA0C0F00F0A7F8A4EB050486
:1008180081EA030E52EA03354FEA013100F088807D
:100828004FEA03334FF0805545EA131343EA126346
:100838004FEA022245EA111545EA10654FEA0026FB
:100848000EF000419D4208BF964244F1FD0404F5B4
:10085800407402D25B084FEA3202B61A65EB030510
:100868005B084FEA32024FF480104FF4002CB6EBCD
:10087800020E75EB030E22BFB61A754640EA0C004D
:100888005B084FEA3202B6EB020E75EB030E22BF8D
:10089800B61A754640EA5C005B084FEA3202B6EBCE
:1008A800020E75EB030E22BFB61A754640EA9C008D
:1008B8005B084FEA3202B6EB020E75EB030E22BF5D
:1008C800B61A754640EADC0055EA060E18D04FEA1B
:1008D800051545EA16754FEA06164FEAC30343EABB
:1008E80052734FEAC2025FEA1C1CC0D111F4801F88
:1008F8000BD141EA00014FF000004FF0004CB6E781
:1009080011F4801F04BF01430020B4F1FD0C88BF1F
:10091800BCF5E06F3FF6AFAEB5EB030C04BFB6EB2A
:10092800020C5FEA500C50F1000041EB045170BD1D
:100938000EF0004E4EEA113114EB5C04C2BFD4EB4A
:100948000C0541EA045170BD41F480114FF0000ECE
:10095800013C90E645EA060E8DE60CEA135594EA4A
:100968000C0F08BF95EA0C0F3FF43BAF94EA0C0F4D
:100978000AD150EA01347FF434AF95EA0C0F7FF4C2
:1009880025AF104619462CE795EA0C0F06D152EA16
:1009980003353FF4FDAE1046194622E750EA4106FA
:1009A80018BF52EA43067FF4C5AE50EA41047FF40B
:1009B8000DAF52EA43057FF4EBAE12E74FF0FF3C70
:1009C80006E000BF4FF0010C02E000BF4FF0010C41
:1009D8004DF804CD4FEA410C7FEA6C5C4FEA430CBA
:1009E80018BF7FEA6C5C1BD001B050EA410C0CBF09
:1009F80052EA430C91EA030F02BF90EA020F00206B
:100A0800704710F1000F91EA030F58BF994208BFD1
:100A180090422CBFD8176FEAE37040F0010070478E
:100A28004FEA410C7FEA6C5C02D150EA013C07D1E5
:100A38004FEA430C7FEA6C5CD6D152EA033CD3D030
:100A48005DF8040B704700BF8446104662468C462A
:100A58001946634600E000BF01B5FFF7B7FF00285D
:100A680048BF10F1000F01BD4DF808EDFFF7F4FF86
:100A78000CBF012000205DF808FB00BF4DF808ED11
:100A8800FFF7EAFF34BF012000205DF808FB00BF34
:100A98004DF808EDFFF7E0FF94BF012000205DF856
:100AA80008FB00BF4DF808EDFFF7CEFF94BF01200B
:100AB80000205DF808FB00BF4DF808EDFFF7C4FF04
:100AC80034BF012000205DF808FB00BF4FEA410257
:100AD80012F5001215D211D56FF47873B3EB625288
:100AE80012D94FEAC12343F0004343EA505311F0AF
:100AF800004F23FA02F018BF404270474FF0000041
:100B0800704750EA013005D111F0004008BF6FF07E
:100B1800004070474FF00000704700BF4FEA4102A5
:100B2800B2F1E04324BFB3F5001CDCF1FE5C0DD943
:100B380001F0004C4FEAC0024CEA5070B2F1004F8D
:100B480040EB830008BF20F00100704711F0804F90
:100B580021D113F13872BCBF01F00040704741F455
:100B680080114FEA5252C2F11802C2F1200C10FA59
:100B78000CF320FA02F018BF40F001004FEAC1233D
:100B88004FEAD32303FA0CFC40EA0C0023FA02F3E1
:100B98004FEA4303CCE77FEA625307D150EA0133B7
:100BA8001EBF4FF0FE4040F44000704701F0004087
:100BB80040F0FE4040F40000704700BF80F0004065
:100BC80002E000BF81F0004142001FBF5FEA41031D
:100BD80092EA030F7FEA226C7FEA236C6AD04FEA1D
:100BE8001262D2EB1363C1BFD21841404840414062
:100BF800B8BF5B42192B88BF704710F0004F40F414
:100C0800000020F07F4018BF404211F0004F41F42F
:100C1800000121F07F4118BF494292EA030F3FD0FB
:100C2800A2F1010241FA03FC10EB0C00C3F120030E
:100C380001FA03F100F0004302D5494260EB40009D
:100C4800B0F5000F13D3B0F1807F06D340084FEA08
:100C5800310102F10102FE2A51D2B1F1004F40EBFD
:100C6800C25008BF20F0010040EA03007047490065
:100C780040EB000010F4000FA2F10102EDD1B0FA30
:100C880080FCACF1080CB2EB0C0200FA0CF0AABF25
:100C980000EBC25052421843BCBFD04018437047C3
:100CA80092F0000F81F4000106BF80F400000132C9
:100CB800013BB5E74FEA41037FEA226C18BF7FEAA0
:100CC800236C21D092EA030F04D092F0000F08BFE2
:100CD8000846704790EA010F1CBF0020704712F0C9
:100CE8007F4F04D1400028BF40F00040704712F108
:100CF80000723CBF00F50000704700F0004343F06D
:100D0800FE4040F4000070477FEA226216BF0846A2
:100D18007FEA23630146420206BF5FEA412390EA65
:100D2800010F40F4800070474FF0000304E000BF5B
:100D380010F0004348BF40425FEA000C08BF70470C
:100D480043F0964301464FF000001CE050EA0102D0
:100D580008BF70474FF000030AE000BF50EA0102E5
:100D680008BF704711F0004302D5404261EB4101D2
:100D78005FEA010C02BF84460146002043F0B643F7
:100D880008BFA3F18053A3F50003BCFA8CF2083A1C
:100D9800A3EBC25310DB01FA02FC634400FA02FC25
:100DA800C2F12002BCF1004F20FA02F243EB02002C
:100DB80008BF20F00100704702F1200201FA02FC8E
:100DC800C2F1200250EA4C0021FA02F243EB020081
:100DD80008BF20EADC7070474FF0FF0C1CEAD052C5
:100DE8001EBF1CEAD15392EA0C0F93EA0C0F6FD086
:100DF8001A4480EA010C400218BF5FEA41211ED064
:100E08004FF0006343EA501043EA5111A0FB01314F
:100E18000CF00040B1F5000F3EBF490041EAD37124
:100E28005B0040EA010062F17F02FD2A1DD8B3F1A0
:100E3800004F40EBC25008BF20F00100704790F00F
:100E4800000F0CF0004C08BF49024CEA502040EA61
:100E580051207F3AC2BFD2F1FF0340EAC250704727
:100E680040F400004FF00003013A5DDC12F1190F65
:100E7800DCBF00F000407047C2F10002410021FAD7
:100E880002F1C2F1200200FA02FC5FEA310040F1EF
:100E9800000053EA4C0308BF20EADC70704792F068
:100EA800000F00F0004C02BF400010F4000F013AA0
:100EB800F9D040EA0C0093F0000F01F0004C02BF9B
:100EC800490011F4000F013BF9D041EA0C018FE70A
:100ED8000CEAD15392EA0C0F18BF93EA0C0F0AD010
:100EE80030F0004C18BF31F0004CD8D180EA010036
:100EF80000F00040704790F0000F17BF90F0004FCF
:100F0800084691F0000F91F0004F14D092EA0C0FB0
:100F180001D142020FD193EA0C0F03D14B0218BF43
:100F2800084608D180EA010000F0004040F0FE4089
:100F380040F40000704740F0FE4040F44000704725
:100F48004FF0FF0C1CEAD0521EBF1CEAD15392EAA4
:100F58000C0F93EA0C0F69D0A2EB030280EA010C94
:100F680049024FEA402037D04FF0805343EA11112D
:100F780043EA10130CF000408B4238BF5B0042F18B
:100F88007D024FF4000C8B4224BF5B1A40EA0C0030
:100F9800B3EB510F24BFA3EB510340EA5C00B3EB62
:100FA800910F24BFA3EB910340EA9C00B3EBD10F50
:100FB80024BFA3EBD10340EADC001B0118BF5FEAA2
:100FC8001C1CE0D1FD2A3FF650AF8B4240EBC250CB
:100FD80008BF20F0010070470CF0004C4CEA50208C
:100FE8007F32C2BFD2F1FF0340EAC250704740F4DB
:100FF80000004FF00003013A37E792F0000F00F0CD
:10100800004C02BF400010F4000F013AF9D040EA4A
:101018000C0093F0000F01F0004C02BF490011F4DE
:10102800000F013BF9D041EA0C0195E70CEAD153D6
:1010380092EA0C0F08D142027FF47DAF93EA0C0FBD
:101048007FF470AF084676E793EA0C0F04D14B02A1
:101058003FF44CAF08466EE730F0004C18BF31F053
:10106800004CCAD130F000427FF45CAF31F000434D
:101078007FF43CAF5FE700BF4FF0FF3C06E000BFE6
:101088004FF0010C02E000BF4FF0010C4DF804CD09
:101098004FEA40024FEA41037FEA226C18BF7FEA19
:1010A800236C11D001B052EA530C18BF90EA010F1B
:1010B80058BFB2EB030088BFC81738BF6FEAE170AA
:1010C80018BF40F0010070477FEA226C02D15FEA46
:1010D800402C05D17FEA236CE4D15FEA412CE1D0B2
:1010E8005DF8040B704700BF844608466146FFE779
:1010F8000FB5FFF7C9FF002848BF10F1000F0FBD5B
:101108004DF808EDFFF7F4FF0CBF012000205DF853
:1011180008FB00BF4DF808EDFFF7EAFF34BF0120D8
:1011280000205DF808FB00BF4DF808EDFFF7E0FF71
:1011380094BF012000205DF808FB00BF4DF808EDC2
:10114800FFF7D2FF94BF012000205DF808FB00BF25
:101158004DF808EDFFF7C8FF34BF012000205DF807
:1011680008FB00BF4FEA4002B2F1FE4F0FD34FF029
:101178009E03B3EB12620DD94FEA002343F00043FC
:1011880010F0004F23FA02F018BF404270474FF0AA
:101198000000704712F1610F01D1420205D110F031
:1011A800004008BF6FF0004070474FF000007047E4
:1011B80082B0084B1B68084AA2FB03235B0A00FBAA
:1011C80003F0019000BF019B5A1E0192002BF9D138
:1011D80002B0704700000020D34D621070B582B095
:1011E8000446036813F0010F2CD0AB4B5B6803F087
:1011F8000C03042B1DD0A84B5B6803F00C03082BD1
:1012080012D06368B3F5803F41D0002B55D103F16C
:10121800804303F504331A6822F480321A601A688E
:1012280022F480221A6037E09B4B5B6813F4803FFE
:10123800E7D0994B1B6813F4003F03D06368002B79
:1012480000F0AE81236813F0020F75D0924B5B68F3
:1012580013F00C0F5FD0904B5B6803F00C03082B66
:1012680054D02369002B00F089808C4B01221A602E
:1012780000F0E8FF0546884B1B6813F0020F74D195
:1012880000F0E0FF401B0228F5D903208DE1824AD7
:10129800136843F480331360636843B300F0D2FFEC
:1012A80005467D4B1B6813F4003FCBD100F0CAFF05
:1012B800401B6428F5D9032077E1B3F5A02F09D0A6
:1012C800754B1A6822F480321A601A6822F4802258
:1012D8001A60E1E703F18043A3F53C331A6842F44E
:1012E80080221A601A6842F480321A60D4E700F04B
:1012F800A9FF0546684B1B6813F4003FA2D000F015
:10130800A1FF401B6428F5D903204EE1624B5B68BE
:1013180013F4803FA5D1604B1B6813F0020F03D074
:101328002369012B40F03E815B4A136823F0F803E0
:10133800616943EAC1031360236813F0080F32D0D0
:10134800A369002B5BD0564B01221A6000F07AFF8C
:101358000546514B5B6A13F0020F21D100F072FF72
:10136800401B0228F5D903201FE14B4A136823F0DC
:10137800F803616943EAC1031360DDE7474B0022C4
:101388001A6000F05FFF0546434B1B6813F0020F1D
:10139800D2D000F057FF401B0228F5D9032004E102
:1013A8000120FFF705FF236813F0040F00F0988071
:1013B800394BDB6913F0805F33D1374BDA6942F080
:1013C8008052DA61DB6903F080530193019B0125A8
:1013D800344B1B6813F4807F25D0E368012B36D08B
:1013E800002B4CD103F1804303F504331A6A22F031
:1013F80001021A621A6A22F004021A622CE0284BCF
:1014080000221A6000F01EFF0546234B5B6A13F0AA
:10141800020FC8D000F016FF401B0228F5D90320A0
:10142800C3E00025D4E71F4A136843F480731360B0
:1014380000F008FF06461B4B1B6813F4807FCCD1D5
:1014480000F000FF801B6428F5D90320ADE0124AA4
:10145800136A43F001031362E3687BB300F0F2FE02
:1014680006460D4B1B6A13F0020F38D100F0EAFE56
:10147800801B41F288339842F3D9032095E0052B6D
:1014880012D0054B1A6A22F001021A621A6A22F077
:1014980004021A62E0E700BF001002400000424266
:1014A8008004424200700040424B1A6A42F0040233
:1014B8001A621A6A42F001021A62CDE700F0C2FE0F
:1014C80006463C4B1B6A13F0020F08D000F0BAFE28
:1014D800801B41F288339842F3D9032065E0E5B9CF
:1014E800E369002B60D0334A526802F00C02082AE4
:1014F8005DD0022B17D0304B00221A6000F0A2FEFC
:1015080004462C4B1B6813F0007F47D000F09AFE6E
:10151800001B0228F5D9032047E0264AD36923F0A7
:101528008053D361DCE7244B00221A6000F08AFE66
:101538000546204B1B6813F0007F06D000F082FEA2
:10154800401B0228F5D903202FE0236AB3F5803F1A
:101558001AD018494B6823F47413226A606A02434C
:1015680013434B60144B01221A6000F06BFE0446D3
:10157800104B1B6813F0007F0ED100F063FE001BB8
:101588000228F5D9032010E00A4A536823F40033EF
:10159800A1680B435360DCE7002006E0002004E06C
:1015A800012002E0012000E0002002B070BD01200F
:1015B800FBE700BF001002406000424210B487B051
:1015C800164C94E80F000DF1180C0CE90F00238A53
:1015D800ADF80430124B5B6803F00C02082A03D004
:1015E800104807B010BC7047C3F38342624412F836
:1015F800100C13F4803F0CD0094B5B68C3F34043D5
:10160800634413F8142C074BB3FBF2F300FB03F00D
:10161800E7E7054B03FB00F0E3E700BF5458000879
:101628000010024000127A0000093D005A4B1B6866
:1016380003F007038B420BD2574A136823F00703C2
:101648000B431360136803F007038B4240F09D803F
:1016580070B5036813F0020F06D0504A536823F0A0
:10166800F0038468234353600D460446036813F06F
:10167800010F52D04368012B23D0022B28D0474AB0
:10168800126812F0020F00F0828044494A6822F082
:10169800030213434B6000F0D5FD06466368012B37
:1016A8001DD0022B2AD03D4B5B6813F00C0F34D0B1
:1016B80000F0C8FD801B41F288339842F3D903201B
:1016C80062E0364A126812F4003FDED101205BE086
:1016D800324A126812F0007FD7D1012054E02F4B14
:1016E8005B6803F00C03042B17D000F0ABFD801BE4
:1016F80041F288339842F2D9032045E0274B5B68D2
:1017080003F00C03082B08D000F09CFD801B41F26D
:1017180088339842F2D9032036E01F4B1B6803F048
:101728000703AB420AD91C4A136823F007032B436B
:101738001360136803F00703AB422AD1236813F040
:10174800040F06D0154A536823F4E063E1680B439D
:101758005360236813F0080F07D0104A536823F426
:101768006053216943EAC1035360FFF727FF0B4B1E
:101778005B68C3F303130A4AD35CD840094B18606B
:10178800002000F02FFD002070BD012070470120CF
:10179800FAE70120F8E700BF0020024000100240ED
:1017A8006858000800000020014B1868704700BF07
:1017B8000000002008B5FFF7F7FF044B5B68C3F390
:1017C8000223034AD35CD84008BD00BF0010024082
:1017D8007858000830B4036A23F001030362056AED
:1017E8004268846924F073040B681C4325F00205E1
:1017F8008B682B43104DA84203D005F50065A8421D
:1018080005D123F00803CD682B4323F004030A4DC8
:10181800A84203D005F50065A84205D122F440721C
:101828004D6915438A692A43426084614A68426364
:10183800036230BC704700BF002C014030B4036A1B
:1018480023F480730362036A4268C46924F0730452
:101858000D682C4323F400738D6843EA0523124D69
:10186800A84203D005F50065A84206D123F4006319
:10187800CD6843EA052323F480630B4DA84203D0C7
:1018880005F50065A84207D122F440524D6942EAA5
:1018980005128D6942EA05124260C4614A68C26352
:1018A800036230BC704700BF002C014030B4036AAB
:1018B80023F480530362036A4468C26922F4E6424F
:1018C8000D6842EA052223F400538D6843EA053384
:1018D800094DA84203D005F50065A84204D124F4B7
:1018E80080444D6944EA85144460C2614A680264D0
:1018F800036230BC704700BF002C014010B4036A7B
:10190800046A24F001040462846924F0F00444EABF
:10191800021223F00A030B438261036210BC704772
:1019280010B4036A23F0100303628469036A24F481
:10193800704444EA023223F0A00343EA01138261AF
:10194800036210BC704710B4846824F47F4442EAF0
:1019580003230B432343836010BC704710B504680E
:10196800A26822F070024B68134323F007030A6849
:101978001343A3604B68502B1ED00AD9602B21D08B
:10198800702B05D10B698A68C9680068FFF7DBFF0F
:1019980010BD402BFCD103681C6A1A6A22F00102B0
:1019A8001A620268936923F0F003096943EA011394
:1019B800936103681C62EBE70A6989680068FFF7AE
:1019C8009DFFE5E70A6989680068FFF7A9FFDFE777
:1019D800704738B590F83C30012B18D004460125E3
:1019E80080F83C50022380F83D30FFF7B7FF2268AB
:1019F800D36823F04003D3602268D36823F480437C
:101A0800D36084F83D50002084F83C0038BD0220A3
:101A1800FCE700000368244A904212D002F50062F5
:101A280090420ED0B0F1804F0BD0A2F59832904280
:101A380007D002F58062904203D002F5806290429E
:101A480003D123F070034A681343174A904212D017
:101A580002F5006290420ED0B0F1804F0BD0A2F593
:101A68009832904207D002F58062904203D002F586
:101A78008062904203D123F44073CA68134323F071
:101A880080034A69134303608B68C3620B688362EF
:101A9800054B984203D003F50063984201D10B69C6
:101AA8000363012343617047002C0140B0B110B5B6
:101AB800044690F83D3063B1022384F83D30214656
:101AC80051F8040BFFF7A6FF012384F83D300020EE
:101AD80010BD80F83C30FFF77BFFEDE70120704731
:101AE80030B4036A23F010030362036A446882690E
:101AF80022F4E6420D6842EA052223F020038D68AD
:101B080043EA0513114DA84203D005F50065A84224
:101B180006D123F08003CD6843EA051323F0400380
:101B28000A4DA84203D005F50065A84207D124F460
:101B380040644D6944EA85048D6944EA850444603B
:101B480082614A688263036230BC7047002C01409E
:101B580038B590F83C30012B66D00D460446012379
:101B680080F83C30022380F83D300C2A1AD8DFE890
:101B780002F00719191920191919341919194700E8
:101B88000068FFF727FE2268936943F00803936112
:101B98002268936923F00403936122689369296991
:101BA8000B439361012384F83D30002084F83C0006
:101BB80038BD0068FFF794FF2268936943F4006317
:101BC80093612268936923F480639361226893691F
:101BD800296943EA01239361E4E70068FFF72EFED1
:101BE8002268D36943F00803D3612268D36923F0DC
:101BF8000403D3612268D36929690B43D361D1E710
:101C08000068FFF753FE2268D36943F40063D36189
:101C18002268D36923F48063D3612268D369296970
:101C280043EA0123D361BDE70220C1E710B40123D1
:101C380003FA01F4036A23EA04030362036A8A408D
:101C48001343036210BC704710B5044601220068B4
:101C5800FFF7ECFF2368094A934203D002F50062BC
:101C6800934203D15A6C42F400425A6422681368C2
:101C780043F001031360002010BD00BF002C014099
:101C880010B4042303FA01F4036A23EA0403036289
:101C9800036A8A401343036210BC704710B50446B8
:101CA80004220068FFF7ECFF2268536C43F40043FA
:101CB80053642268136843F001031360002010BDC9
:101CC80090F83C30012B25D0012380F83C30CB68BC
:101CD80023F440738A68134323F480634A681343E8
:101CE80023F400630A68134323F480530A691343F7
:101CF80023F400534A69134323F480438A69134346
:101D080023F40043134302685364002380F83C30F3
:101D1800184670470220704790F83C30012B22D0BB
:101D280030B4012280F83C20022380F83D3004685A
:101D3800636823F070036360046863680D682B436D
:101D480063600468A36823F08003A3600468A36841
:101D580049680B43A36080F83D20002380F83C309D
:101D6800184630BC7047022070470000034690F8C0
:101D78002420012A20D0012280F8242002689068BB
:101D880010F0010F07D10D48806810F0010F02D143
:101D98000B48824208D09A6A42F020029A620120D7
:101DA800002283F824207047506820F470200968C6
:101DB800084350600020F3E70220704700280140E4
:101DC80000240140074AD36823F4E0631B041B0C7A
:101DD800000200F4E060184340F0BF6040F40030B7
:101DE800D060704700ED00E030B4174BDB68C3F3F8
:101DF8000223C3F10704042C28BF04241D1D062D4B
:101E080001D9033B00E000234FF0FF3505FA04F445
:101E180021EA0401994005FA03F322EA030319436E
:101E2800002809DB0901C9B200F1604000F56140F2
:101E380080F8001330BC704700F00F000901C9B2E8
:101E4800024B1954F6E700BF00ED00E014ED00E086
:101E580000F01F02400901239340024A42F8203053
:101E6800704700BF00E100E00138B0F1807F0AD27E
:101E7800064B5860064AF02182F82310002098602B
:101E880007221A6070470120704700BF10E000E089
:101E980000ED00E0042805D0054A136823F0040388
:101EA80013607047024A136843F0040313607047D5
:101EB80010E000E0704708B5FFF7FCFF08BD000020
:101EC800F0B482B000263546A6E0002B5ED0012B88
:101ED80010D1CE680EE06E4FBB4257D04ED96D4F31
:101EE800BB4253D007F58037BB424FD0A7F58017C8
:101EF800BB424BD0FF2A5DD88446FF2A5DD8AC0090
:101F0800DCF800300F27A74023EA070306FA04F499
:101F18002343CCF800304B6813F0805F7BD05E4BD6
:101F28009C6944F001049C619B6903F001030193DF
:101F3800019BAC08A71C594B53F827C005F00303B5
:101F48009F000F23BB402CEA030C554B98423AD014
:101F580003F58063984278D003F58063984276D081
:101F680003F58063984274D003F58063984272D079
:101F780003F58063984224D0062325E0A7F580174F
:101F8800BB4203D007F58037BB42B3D18B687BB126
:101F9800012B08D044610826ACE7CE680836A9E7CB
:101FA800CE680C36A6E704610826A3E70026A1E759
:101FB80004269FE700F1040C9FE7A5F10804A4009C
:101FC8009EE7052300E00023BB4043EA0C030234EC
:101FD800324F47F824304B6813F4803F3DD0314CE2
:101FE8002368134323604B6813F4003F3BD02D4C08
:101FF8006368134363604B6813F4801F39D0294C1E
:10200800A3681343A3604B6813F4001F37D0254C13
:10201800E3681A43E26001350F2D36D80124AC403D
:102028000A6822409442F6D14B68122BB8D03FF68A
:1020380052AF022BB1D07FF648AF032BB6D0112B8D
:102048007FF458AFCE68043654E70123BCE7022377
:10205800BAE70323B8E70423B6E7124C236823EA58
:1020680002032360BFE70F4C636823EA020363603F
:10207800C1E70C4CA36823EA0203A360C3E7094C39
:10208800E36823EA0202E260C5E702B0F0BC7047E9
:102098000000211000003110001002400000014033
:1020A80000080140000401408368194201D0012062
:1020B8007047002070470AB1016170470904016147
:1020C8007047C3685940C1607047000070B582B05E
:1020D8000446036813F0010F34D03E4BDB6913F05C
:1020E800805F48D13B4BDA6942F08052DA61DB69A4
:1020F80003F080530193019B0125374B1B6813F4B0
:10210800807F3AD0334B1B6A13F4407311D0626856
:1021180002F440729A420CD02E4A136A23F440709B
:102128002E4901260E6000260E60106213F0010F82
:1021380037D1284A136A23F4407361680B4313624A
:10214800002D3FD1236813F0020F06D0214A5368AF
:1021580023F44043A1680B435360236813F0100F26
:1021680035D01C4A536823F4800361690B435360DC
:10217800002002B070BD0025BFE7174A136843F47A
:102188008073136000F05EF80646134B1B6813F467
:10219800807FB7D100F056F8801B6428F5D903205A
:1021A800E7E700F04FF806460A4B1B6A13F0020FE8
:1021B800BFD100F047F8801B41F288339842F3D929
:1021C8000320D6E7D36923F08053D361BAE7002010
:1021D800CFE700BF001002400070004040044242B8
:1021E8007047000010B50446074B1868074BA3FB5F
:1021F80000308009FFF738FE002221464FF0FF30FB
:10220800FFF7F2FD002010BD00000020D34D621042
:1022180008B5074A136843F0100313600320FFF75B
:10222800D1FD0020FFF7DEFFFFF7DAFF002008BD31
:1022380000200240024A136801331360704700BF50
:1022480078000020014B1868704700BF7800002014
:1022580030B583B00190FFF7F5FF0546019CB4F156
:10226800FF3F00D00134FFF7EDFF401BA042FAD337
:1022780003B030BD7047000030B482B00023019332
:1022880090F82430012B00F08B800246012380F85F
:1022980024304B68062B29D80568686B03EB830349
:1022A800053B1F249C4020EA04000C6804FA03F351
:1022B80003436B630B68092B38D91568E86803EB8F
:1022C80043031E3B07249C4020EA04008C6804FA60
:1022D80003F30343EB600B68103B012B34D9002058
:1022E800002382F8243002B030BC70470C2B0ED883
:1022F8000568286B03EB8303233B1F249C4020EADB
:1023080004000C6804FA03F303432B63D2E705685F
:10231800E86A03EB8303413B1F249C4020EA040046
:102328000C6804FA03F30343EB62C3E715682869F2
:1023380003EB430307249C4020EA04008C6804FA5A
:1023480003F303432B61C6E713681648834205D09D
:10235800936A43F0200393620120C1E7986810F460
:10236800000F1BD1986840F4000098600B68102B90
:1023780001D00020B4E70C4B1B680C49A1FB0313E8
:102388009B0C03EB83035900019102E0019B013B85
:102398000193019B002BF9D10020A1E700209FE7C2
:1023A8000220A0E7002401400000002083DE1B4338
:1023B80030B583B00023019303689A6812F0010FC7
:1023C8002DD19A6842F001029A60164B1B68164A92
:1023D800A2FB03239B0C0193019B1BB1019B013BB7
:1023E8000193F9E70446FFF72DFF054623689B682C
:1023F80013F0010F11D1FFF725FF401B0228F5D973
:10240800A36A43F01003A362E36A43F00103E362A3
:10241800002384F82430012002E0002000E000209E
:1024280003B030BD0000002083DE1B4390F8243049
:10243800012B6BD010B50446012380F82430FFF738
:10244800B7FF024600285CD1A36A23F4407323F047
:10245800010343F48073A36221682E4B994228D06C
:10246800A36A23F48013A3624B6813F4806F05D02A
:10247800A36A23F4405343F48053A362A36A13F47A
:10248800805F2CD0E36A23F00603E362002384F81C
:10249800243023686FF0020119602368996801F4F9
:1024A8006021B1F5602F1DD0996841F480119960C1
:1024B8002AE0A3F580635B6813F4702FD0D0A36A79
:1024C80043F48013A362144B5B6813F4806FD5D078
:1024D800A36A23F4405343F48053A362CEE7002356
:1024E800E362D3E70B498B4204D0996841F4A00119
:1024F800996009E0A1F58061496811F4702FD3D182
:10250800F3E7002384F82430104610BD0222104659
:10251800704700BF002801400024014038B5036817
:102528009A6812F0010F01D1002038BD04469A685C
:1025380022F001029A60FFF785FE054623689B6832
:1025480013F0010F0ED0FFF77DFE401B0228F5D9CE
:10255800A36A43F01003A362E36A43F00103E36252
:102568000120E2E70020E0E7002800F08680F8B5C7
:102578000446836A002B50D02046FFF7CFFFA36A9A
:1025880013F0100373D1002871D1A26A22F4885283
:1025980022F0020242F00202A2626268266838490A
:1025A8008E4240D0E1690A43E16842EA4102A568E7
:1025B800B5F5807F02D0012D3CD01D466769012FFB
:1025C8003BD0716821F46941294371602568AE6880
:1025D8002C4931401143A960A168B1F5807F01D031
:1025E800012902D12369013B1B052568E96A21F409
:1025F80070010B43EB6223689968234B0B409A42A6
:102608002CD0A36A23F0120343F01003A362E36AF9
:1026180043F00103E36201202EE0C36280F8243016
:10262800FFF728FEA8E7E169B1F5402FBBD14FF4C9
:102638000021B8E74FF48075C0E731B9A1690139C5
:1026480045EA413141F40065BBE7A16A41F0200148
:10265800A162E16A41F00101E162B2E70023E362AD
:10266800A36A23F0030343F00103A36204E0A36A0F
:1026780043F01003A3620120F8BD0120704700BF9A
:10268800003C0140FDF7E1FFFE0E1FFF90F83E30D1
:10269800DBB2402B10D00369B3F5804F1BD0036D1C
:1026A8005BBB436CC3F3C813026803F0060343F033
:1026B800F003136100207047036D2BB9436C026867
:1026C80003F0FE031361F5E7436C026843F001036E
:1026D800DBB21361EEE790F83D30DBB2212B06D078
:1026E800436C026843F00103DBB21361E2E7436C19
:1026F800026803F0FE031361DCE7036D012BD9D1F7
:10270800436CC3F3C813026803F0060343F0F103F4
:102718001361CFE7436C0268DBB213610020704796
:1027280010B48DB090F83E30DAB2C16A046B90F8FC
:102738003D30DBB2222B0BD000230B9303685A6980
:102748000B929B690B930B9B00200DB010BC70473C
:10275800036D0BB9402A17D0036D1BB90369B3F594
:10276800404F19D0438D9BB2002B25D103930368AA
:102778005A6903929A690392039A1A6842F400729A
:102788001A6000230365DFE7019303685A69019221
:102798009B690193019BD7E70023029303685A6959
:1027A80002929A690292029A1A6842F480721A6036
:1027B800036D01330365C7E7438D9BB2012B1AD024
:1027C800438D9BB2022B6BD00268136843F480637D
:1027D800136003685A6812F4006F03D05A6842F411
:1027E80080525A6000230A9303685A690A929B69C7
:1027F8000A930A9BC5E711F5803F16D004293DD0FE
:1028080008293BD0122C39D0C36A022B30D0026879
:10281800136823F4806313600023069303685A69DE
:1028280006929B690693069BABE70268136823F43C
:102838008063136003685A6812F4006F0CD01A683A
:1028480022F480621A600023049303685A69049290
:102858009B690493049B94E7002205925A690592A8
:102868009A690592059A1A6842F400721A6088E714
:102878000268136843F480631360CDE70268136845
:1028880023F4806313600023079303685A6907924F
:102898009A690792079A1A6842F400721A6070E7F8
:1028A800C36A022B1BD00268136843F400631360E9
:1028B8000023089303685A6908929A690892089A4B
:1028C8001A6822F480621A6003685A6812F4006F6A
:1028D8003FF457AF5A6842F480525A6051E7026891
:1028E800136843F4806313600023099303685A69EB
:1028F80009929B690993099BE6E7438D9BB24BB10B
:10290800436A5A1C426202681B781361438D013B7B
:102918009BB2438500207047438D9BB24BB103683F
:102928001A69436A591C41621A70438D013B9BB274
:1029380043850020704703685A6912F4806F01D1FB
:10294800002070476FF480625A61042303640023F7
:102958000363202280F83D2080F83C300120704736
:10296800F8B506460C4617461D461EE02DB1FFF782
:1029780069FC069BC01AA84217D90023336320229A
:1029880086F83D2086F83E3086F83C3003201AE071
:1029980033689B6924EA03039BB2B3FA83F35B09A8
:1029A8009F420FD1B5F1FF3FE0D1C4F30743012B9C
:1029B800EED133685B6924EA03039BB2B3FA83F36D
:1029C8005B09EDE70020F8BDF8B504460D4616464C
:1029D8001F4632E01A6842F400721A6023686FF4E6
:1029E80080625A610423236400232363202284F82D
:1029F8003D2084F83C3001202DE026B1FFF722FC71
:102A0800C01BB04219D900232363202284F83D203B
:102A180084F83C3003201EE023689B6925EA030301
:102A28009BB2003318BF0123A3B123685A6912F47B
:102A3800806FCFD1B6F1FF3FDFD1C5F30743012B3C
:102A4800EAD123685B6925EA03039BB2003318BF08
:102A58000123E9E70020F8BDF0B583B004460D4630
:102A680016461F46C36A042B0DD0012B0BD013F555
:102A7800803F08D0036B122B0AD10268136843F415
:102A88008073136004E02268136843F48073136052
:102A98000097334600224FF001112046FFF760FFF0
:102AA80078BB2369B3F5804F10D1236805F0FE0584
:102AB8001D613B46324615492046FFF785FF034610
:102AC80000B3236C042B1AD003231BE0EB112268FC
:102AD80003F0060343F0F00313613B4632460C490A
:102AE8002046FFF771FF30B1236C042B01D003237C
:102AF80008E0012306E02368EDB21D61D9E7012350
:102B080000E00323184603B0F0BD00BF0200010037
:102B1800080001002DE9F04184B004460D46164630
:102B28001F46C26A01680B6843F480630B60042A7D
:102B38000DD0012A0BD012F5803F08D0036B112B62
:102B48000AD10268136843F48073136004E02268B2
:102B5800136843F4807313600097334600224FF0E4
:102B680001112046FFF7FCFE002858D12369B3F570
:102B7800804F12D1236845F00105EDB21D613B4637
:102B880032462A492046FFF71FFF0346002847D050
:102B9800236C042B41D0032342E04FEAE51808F0E8
:102BA8000608236848F0F0021A613B46324620497D
:102BB8002046FFF709FF30B1236C042B01D0032313
:102BC8002EE001232CE02368EDB21D613B4632461E
:102BD80016492046FFF7F8FE30B1236C042B01D0CC
:102BE80003231DE001231BE0002203922368596997
:102BF8000391996903910399196841F480711960E7
:102C0800009733464FF001112046FFF7A9FE58B947
:102C1800226848F0F1031361B1E7012300E00323C0
:102C2800184604B0BDE8F0810323F9E7020001006B
:102C38000800010070B504460D46164623685B6916
:102C480013F0800F19D12046FFF775FEB8B9B5F11A
:102C5800FF3FF3D025B1FFF7F5FA801BA842EDD965
:102C6800236C43F02003236400232363202284F889
:102C78003D2084F83C30032000E0002070BD012096
:102C8800FCE770B504460D46164623685B6913F0E9
:102C9800040F19D12046FFF74EFEB8B9B5F1FF3F32
:102CA800F3D025B1FFF7CEFA801BA842EDD9236CEB
:102CB80043F02003236400232363202284F83D206B
:102CC80084F83C30032000E0002070BD0120FCE7C0
:102CD80070B505460C4616462B685A6912F0400F27
:102CE80022D15A6912F0100F11D124B1FFF7AAFAB4
:102CF800801BA042F0D92B6C43F020032B642023C7
:102D080085F83D30002385F83C30032070BD6FF016
:102D180010025A6100232B642B63202285F83D2082
:102D280085F83C300120F1E70020EFE7704700000C
:102D3800002800F0828010B5044690F83D30002B42
:102D480041D0242384F83D302268136823F001031E
:102D58001360FEF72FFD3A4BA3FB00239B0C226860
:102D680053606168374A914232D80133226813624E
:102D78006368344A934235D85B00B0FBF3F040F601
:102D8800FC73184200D104202368D861E369216AE2
:102D980022680B4313602369E16822680B43936040
:102DA8006369A16922680B43D3602268136843F002
:102DB8000103136000202064202384F83D30206341
:102DC80084F83E0010BD80F83C30FFF7AFFFB8E74D
:102DD8004FF4967202FB03F31B4AA2FB03239B09E1
:102DE8000133C3E7A16889B903EB4302B0FBF2F2F0
:102DF800C2F30B02B2FA82F25209E2B991B903EBBB
:102E08004303B0FBF3F040F40040BDE703EB83025B
:102E180002EB8202B0FBF2F2C2F30B02B2FA82F2C8
:102E28005209EAE703EB830303EB8303B0FBF3F0F8
:102E380040F44040A8E70120A6E70120704700BF02
:102E480083DE1B43A0860100D34D62102DE9F041BB
:102E580084B004460E4690461F46FFF7F3F994F8EF
:102E68003D30DBB2202B04D00226304604B0BDE84A
:102E7800F081054600901923012254492046FFF7A6
:102E88006FFD002840F09D8094F83C30012B00F045
:102E98009A80012384F83C3023681A6812F0010FE5
:102EA80003D11A6842F001021A602268136823F4F9
:102EB80000631360212384F83D30102384F83E30EA
:102EC80000232364C4F824806785A3F58033E36274
:102ED800638D23852B460A9A31462046FFF7BCFDB1
:102EE800064660B1236C042B04D0002384F83C30E0
:102EF8000326BAE7002384F83C300126B5E700230F
:102F0800039323685A6903929B690393039B12E016
:102F1800236C042B01D00326A7E72268136843F427
:102F2800007313600126A0E72A460A992046FFF796
:102F3800A8FE00282BD1238D002B34D02A460A99CD
:102F48002046FFF777FE0028E2D1636A5A1C6262C6
:102F580022681B781361638D013B9BB26385238DC7
:102F6800013B9BB223852268516911F0040FDBD025
:102F7800002BD9D0636A591C61621B781361638D79
:102F8800013B9BB26385238D013B2385CCE7236CF2
:102F9800042B01D0032668E72268136843F4007302
:102FA8001360012661E72268136843F40073136015
:102FB800202384F83D30002384F83E3084F83C30E8
:102FC80053E7022651E702264FE700BF0200100030
:102FD8002DE9F04186B004460E4690461F46FFF79D
:102FE80031F994F83D30DBB2202B04D0022630466C
:102FF80006B0BDE8F08105460090192301229049EA
:103008002046FFF7ADFC002840F0538194F83C308F
:10301800012B00F05081012384F83C3023681A68A2
:1030280012F0010F03D11A6842F001021A602268F7
:10303800136823F400631360222384F83D301023BF
:1030480084F83E3000232364C4F824806785A3F500
:103058008033E362638D23852B460C9A31462046E4
:10306800FFF758FD064660B1236C042B04D00023FB
:1030780084F83C300326BAE7002384F83C30012664
:10308800B5E7238D5BB9029323685A6902929A695E
:103098000292029A1A6842F400721A60A0E0012BA8
:1030A8000FD0022B21D02268136843F48063136089
:1030B8000023059323685A6905929B690593059B2C
:1030C8008EE02268136823F48063136072B60023CD
:1030D800039323685A6903929A690392039A1A68B8
:1030E80042F400721A6062B67AE02268136843F408
:1030F8000063136072B60023049323685A6904922C
:103108009A690492049A1A6822F480621A6062B674
:1031180066E02A460C992046FFF7DAFD68B923686D
:103128001A69636A591C61621A70238D013B2385F1
:10313800638D013B9BB2638552E0236C202B01D049
:10314800012654E7032652E700950C9B00223D49CF
:103158002046FFF705FC002840F0AF8072B62268D1
:10316800136843F40073136023681A69636A591C6F
:1031780061621A70238D013B2385638D013B9BB2ED
:10318800638562B623681A69636A591C61621A709A
:10319800238D013B2385638D013B9BB263851FE033
:1031A8002268136843F40073136023681A69636A1A
:1031B800591C61621A70238D013B2385638D013B85
:1031C8009BB2638562B623681A69636A591C616297
:1031D8001A70238D013B2385638D013B9BB2638568
:1031E800238D002B5CD0032B2ED8012B91D0022BE2
:1031F800AAD000950C9B002212492046FFF7B0FB8D
:1032080000285CD12268136823F48063136072B6C7
:1032180023681A69636A591C61621A70238D013B1D
:103228002385638D013B9BB2638500950C9B00222F
:1032380004492046FFF794FB0028B1D00326D6E6C0
:1032480002001000040001002A460C992046FFF7EE
:103258003FFDF0B923681A69636A591C61621A70E4
:10326800238D013B2385638D013B9BB263852368D6
:103278005A6912F0040FB3D01A69636A591C616263
:103288001A70238D013B2385638D013B9BB26385B7
:10329800A6E7236C202B01D00126A8E60326A6E684
:1032A800202384F83D30002384F83E3084F83C30F5
:1032B8009DE602269BE6022699E6032697E6032664
:1032C80095E600BF70477047704708B590F83D30E5
:1032D800DAB2438D9BB273B1436A591C41620168EB
:1032E8001B780B61438D013B9BB24385438D9BB299
:1032F8000BB9292A01D0002008BD0268536823F4BD
:103308008063536021230363282380F83D30FFF74F
:10331800DBFFF0E7704790F83D30DAB2438D9BB29F
:10332800F3B110B503681969436A5C1C44621970EB
:10333800438D013B9BB24385438D9BB20BB92A2A2F
:1033480001D0002010BD0268536823F480635360E5
:1033580022230363282380F83D30FFF7DBFFF0E7E3
:1033680000207047704708B503689A6912F0040F87
:1033780009D000219B6913F0800F06D18289FFF7DD
:10338800F1FF002008BD0121F4E7028BF7E7704741
:1033980008B590F83D30DBB2C26A042A01D0082A89
:1033A80001D1282B07D0212B1FD003686FF480622E
:1033B8005A61002008BD1A4BC3620268536823F49F
:1033C800E063536003686FF480625A6102681368AF
:1033D80023F48063136000230363202280F83D20D8
:1033E80080F83E30FFF7D3FFE3E70D4BC36221239C
:1033F8000363202380F83D30002380F83E300268C4
:10340800536823F4E063536003686FF480625A6181
:103418000268136823F480631360FFF755FFC8E759
:103428000000FFFF704710B590F83D30DBB290F810
:103438003E20D2B2C46A018D09B9212B05D0212BB7
:103448003CD0402A38D0002010BD042C04D0082CD1
:1034580002D014F5803F19D10268536823F4E06361
:1034680053600268136843F4007313600023036316
:10347800202380F83D3090F83E30DBB2402B15D049
:10348800002380F83E30FFF71DFFDCE70268536831
:1034980023F4E063536011230363002380F83E3074
:1034A800202380F83D30FFF70DFFCCE7002380F89C
:1034B8003E30FFF7B7FFC6E7222BC4D1438D9BB23E
:1034C8002BB90268536823F480635360BBE790F814
:1034D8003E30DBB2402B0AD0436A5A1C4262026873
:1034E8001B781361438D013B9BB24385ABE7036DAA
:1034F8009BB9C36C012B08D0836CC3F30723026804
:103508001361036D013303659DE7836C0268DBB2C9
:103518001361036D0233036595E7036D012B17D023
:10352800036D022B8FD190F83D30DBB2222B17D0E0
:1035380090F83D30DBB2212B85D1436A5A1C426298
:1035480002681B781361438D013B9BB243857AE780
:10355800836C0268DBB21361036D0133036572E7A4
:103568000268136843F4807313606CE708B5C26A95
:1035780090F83D30DBB2212B01D0002008BD438DEF
:103588009BB253B1436A5A1C426202681B781361AA
:10359800438D013B9BB24385EFE7042A04D0082AF8
:1035A80002D012F5803F19D10268536823F4E06312
:1035B80053600268136843F40073136000230363C5
:1035C800202380F83D3090F83E30DBB2402B15D0F8
:1035D800002380F83E30FFF775FECEE70268536897
:1035E80023F4E063536011230363002380F83E3023
:1035F800202380F83D30FFF765FEBEE7002380F802
:103608003E30FFF70FFFB8E7704708B590F83D3038
:10361800DBB2222B01D0002008BD438D9BB2032BC7
:103628000AD903681A69436A591C41621A70438DA2
:10363800013B9BB24385EEE7023B012B26D9C36AC7
:10364800022B3CD00268136823F48063136002687D
:10365800536823F4E063536003681A69436A591C8A
:1036680041621A70438D013B9BB24385202380F849
:103678003D300023036390F83E30DBB2402B24D06A
:10368800002380F83E30FFF71EFEC4E7C36A022B12
:103698000FD00268136823F480631360026813680C
:1036A80043F4006313600268536823F48063536033
:1036B800B1E70268136843F480631360F3E70268B4
:1036C800136843F480631360C1E7002380F83E3039
:1036D800FFF79AFF9FE708B5C26A438D9BB2032B99
:1036E8000FD0438D9BB2022B22D003681A69436A1C
:1036F800591C41621A70438D013B9BB243850020DF
:1037080008BD042A04D0082A02D012F5803F04D14B
:103718000268136823F48063136003681A69436AB4
:10372800591C41621A70438D013B9BB24385E6E701
:10373800042A17D0082A15D012F5803F12D0022A81
:103748000AD00268136823F4806313600268536820
:1037580023F4407353600FE00268136843F48063F6
:103768001360F3E70268536823F4407353600268F8
:10377800136843F40073136003681A69436A591C99
:1037880041621A70438D013B9BB2438503681A69F5
:10379800436A591C41621A70438D013B9BB24385B1
:1037A800202380F83D300023036390F83E30DBB2DD
:1037B800402B05D0002380F83E30FFF784FD9EE7BC
:1037C800002380F83E30FFF71FFF98E770477047E7
:1037D80010B5044690F83D30293B012B36D990F8B6
:1037E8003D30DBB2602B07D003685B6813F4006FD1
:1037F80002D1202380F83D300023236384F83E3033
:103808002268136823F40063136023685A6812F46B
:10381800006F3ED05A6822F400625A60636B93F8D6
:103828002120012A18D03A4A5A63606B00F096FAB0
:1038380000283FD02268136823F001031360202377
:1038480084F83D30606B436B984733E00023036393
:10385800282380F83D30D3E7A36B2D4A5A63A06B29
:1038680000F07CFA30B323685A6912F0400F04D094
:103878001A69636A591C61621A702268136823F016
:1038880001031360202384F83D30A06B436B9847F5
:1038980010E094F83D20D2B2602A11D05A6912F093
:1038A800400F04D01A69636A591C61621A70204675
:1038B800FFF78CFF94F83D30DBB2282B17D010BDF2
:1038C800202284F83D20002222645A6912F0400F19
:1038D80004D01A69636A591C61621A7022681368F5
:1038E80023F0010313602046FFF771FFE2E7236C22
:1038F80013F0040FE3D0074BE36200232363202275
:1039080084F83D2084F83E302046FFF740FDD6E796
:10391800653C00080000FFFF10B582B090F83D300C
:10392800DBB201684A6822F4E0624A600022019230
:10393800026851690191116841F001011160019A11
:1039480001680A6822F480620A6001684A6812F411
:10395800006F14D090F83D20D2B2222A0AD090F8F5
:103968003D20D2B22A2A05D0426B1268526892B220
:10397800428504E0826B1268526892B24285428D99
:1039880092B2F2B14A6912F0040F08D00969426A8A
:10399800541C44621170428D013A92B24285026809
:1039A800516911F0400F08D01169426A541C4462F1
:1039B8001170428D013A92B24285026C42F00402C3
:1039C8000264026CA2B9282B15D02A2B13D0292BFC
:1039D80011D0026B222A01D0222B17D100230363B6
:1039E800202280F83D2080F83E30FFF793FC0DE060
:1039F800FFF7EEFE0AE0074BC362002303632022B1
:103A080080F83D2080F83E30FFF7C1FC002002B06E
:103A180010BD00BF0000FFFFF8B5054603689F69A9
:103A28005C695E6890F83E30DBB2102B25D0402BE5
:103A380023D04C4B234013B116F4007F6ED14A4B70
:103A4800234013B116F4007F6BD1484B3B40002B49
:103A58006FD0474B234033B116F4806F03D0454BEA
:103A68002340002B61D0434B234053B316F4007F0F
:103A780027D02846FEF741FF23E014F0011F02D0AB
:103A880016F4007F1ED13C4B234013B116F4007F7F
:103A98001CD1344B234013B116F4007F1AD1334B99
:103AA8003B401BB3324B23402BB116F4806F02D03E
:103AB800304B234093B12F4B234013B116F4007FB2
:103AC80010D1F8BD2846FEF7E1FDE8E72846FEF7E5
:103AD80021FEE4E72846FEF723FEE0E72846FFF745
:103AE800A2FCEEE72846FFF741FDEAE7234B234017
:103AF8002BB116F4806F02D01E4B234053B11D4BDF
:103B08002340002BDDD016F4007FDAD02846FFF7DB
:103B1800E2FDD6E72846FFF778FDD2E7FFF723FC5A
:103B2800CFE72846FFF7F8FECBE72846FFF7CDFB9F
:103B3800C7E7124B23402BB116F4806F02D00D4B10
:103B4800234053B10B4B2340002BBAD016F4007F0F
:103B5800B7D02846FEF7E0FEB3E72846FFF7DBFBC1
:103B6800AFE700BF020001001000010004001000D0
:103B7800800001000400010008000100400001006D
:103B880070B5044603685D695E68334A15420ED015
:103B980016F4807F0BD0026C42F0010202646FF4CD
:103BA80080725A610268136843F40043136015F485
:103BB800813F0AD016F4807F07D0236C43F00203BC
:103BC800236423686FF400725A6115F4823F1AD097
:103BD80016F4807F17D094F83E30DBB2628D91B234
:103BE80094F83D20D2B2206B202B1DD0236C43F0DB
:103BF8000403236494F83E30DBB2102B22D02368F0
:103C08006FF480625A6115F4843F0AD016F4807FFD
:103C180007D0236C43F00803236423686FF4006221
:103C28005A61236CA3B970BD0029DFD1212A05D0C0
:103C3800292A03D0282AD9D12128D7D12046FFF70D
:103C4800A7FBE0E72268136843F400731360D6E724
:103C58002046FFF7BDFDE6E70001010008B5406A10
:103C68000268136823F48063136000234385426B62
:103C78005363826B536390F83D30DBB2602B0DD0F9
:103C8800202380F83D30002380F83E300268136816
:103C980023F001031360FFF799FD08BD202380F886
:103CA8003D30002380F83E3003640268136823F037
:103CB80001031360FFF78BFDEFE7000000283ED0FB
:103CC80010B4034600681F4A90422DD81E4A024489
:103CD8001E49A1FB0212120992001A641C4ADA63F7
:103CE800022283F82120016821F47F5121F030015C
:103CF8005A689C682243DC6822431C6922435C6939
:103D080022439C692243DC6922430A430260002063
:103D18009862D862186358639863012283F8212057
:103D280083F8200010BC70470A4A02440749A1FBE7
:103D38000212120992001A64074ADA63D0E70120D6
:103D4800704700BF07040240F8FFFDBFCDCCCCCCC4
:103D580000000240F8FBFDBF0004024008B590F8DF
:103D68002130022B03D004238363012008BD02689D
:103D7800136823F00E0313600268136823F001032D
:103D8800136003684B4A93424ED9783A934224D041
:103D98001432934230D0143293422FD014329342CB
:103DA8002FD0143293422FD0143293422FD0143292
:103DB80093422FD002F5627293422ED0143293426E
:103DC8002DD0143293422CD01432934202D04FF4A7
:103DD800803203E04FF4805200E00122364B5A60F3
:103DE800012380F82130002380F82030436B002B1A
:103DF8005ED098470020B9E71022EFE74FF48072B1
:103E0800ECE74FF48052E9E74FF48032E6E74FF4ED
:103E18008012E3E74FF08072E0E70122DEE710222C
:103E2800DCE74FF48072D9E7244A934224D0143255
:103E3800934225D01432934224D01432934224D092
:103E48001432934224D01432934224D01432934231
:103E580024D002F56272934223D01432934222D0C6
:103E68001432934221D01432934202D04FF480325C
:103E780003E04FF4805200E00122114B5A60AFE793
:103E88001022FAE74FF48072F7E74FF48052F4E714
:103E98004FF48032F1E74FF48012EEE74FF0807272
:103EA800EBE70122E9E71022E7E74FF48072E4E745
:103EB80000205BE780000240000402400800024046
:103EC8000000024038B5C36B1A6804682568016CA5
:103ED80004238B40134200F09B8015F0040F00F080
:103EE8009780236813F0200F03D1236823F004037D
:103EF80023600368AA4A934246D9783A934224D069
:103F08001432934228D01432934227D01432934269
:103F180027D01432934227D01432934227D0143238
:103F2800934227D002F56272934226D0143293420C
:103F380025D01432934224D01432934202D04FF445
:103F4800802203E04FF4804200E00422954B5A603F
:103F5800C36A03B1984738BD4022F7E74FF480623F
:103F6800F4E74FF48042F1E74FF48022EEE74FF494
:103F78008002EBE74FF08062E8E70422E6E74022A0
:103F8800E4E74FF48062E1E7874A934224D0143291
:103F9800934225D01432934224D01432934224D031
:103FA8001432934224D01432934224D014329342D0
:103FB80024D002F56272934223D01432934222D065
:103FC8001432934221D01432934202D04FF480220B
:103FD80003E04FF4804200E00422744B5A60B7E7D4
:103FE8004022FAE74FF48062F7E74FF48042F4E7A3
:103FF8004FF48022F1E74FF48002EEE74FF0806241
:10400800EBE70422E9E74022E7E74FF48062E4E7C0
:1040180002238B40134200F0A38015F0020F00F03A
:104028009F80236813F0200F06D1236823F00A032A
:104038002360012380F821300368594A93424BD901
:10404800783A934224D0143293422DD014329342BA
:104058002CD0143293422CD0143293422CD01432E8
:1040680093422CD0143293422CD002F562729342C0
:104078002BD0143293422AD01432934229D01432CE
:10408800934202D04FF4003203E04FF4005200E0B4
:104098000222444B5A60002380F82030836A002BA8
:1040A8003FF459AF984756E72022F2E74FF40072E1
:1040B800EFE74FF40052ECE74FF40032E9E74FF432
:1040C8000012E6E74FF00072E3E70222E1E7202260
:1040D800DFE74FF40072DCE7334A934224D014320E
:1040E800934225D01432934224D01432934224D0E0
:1040F8001432934224D01432934224D0143293427F
:1041080024D002F56272934223D01432934222D013
:104118001432934221D01432934202D04FF4003229
:1041280003E04FF4005200E00222204B5A60B2E74D
:104138002022FAE74FF40072F7E74FF40052F4E751
:104148004FF40032F1E74FF40012EEE74FF000723F
:10415800EBE70222E9E72022E7E74FF40072E4E701
:10416800082303FA01F111423FF4F5AE15F0080FE8
:104178003FF4F1AE236823F00E032360026CC16B99
:10418800012303FA02F24A60836380F82130002396
:1041980080F82030036B002B3FF4DDAE9847DAE659
:1041A8008000024000040240080002400000024073
:1041B8000F4B1A6842F001021A6059680D4A0A400A
:1041C8005A601A6822F0847222F480321A601A68DF
:1041D80022F480221A605A6822F4FE025A604FF4D0
:1041E8001F029A60044B4FF000629A60704700BF4C
:1041F800001002400000FFF800ED00E02DE9F0415A
:104208008AB04A4DEB6943F48003EB61EB6903F430
:1042180080030193019B6B6943F001036B616B6938
:1042280003F001030293029B042201210E20FDF7F3
:10423800DBFD0E20FDF70CFE032201210F20FDF708
:10424800D3FD0F20FDF704FE394E3A4B33603A4B4D
:1042580073600024B460F4604FF480433361746188
:10426800B461F46134623046FEF762FD6B6943F075
:1042780001036B616B6903F001030393039BAB6953
:1042880043F00803AB61AB6903F008030493049B94
:104298004FF44063069312230793012308930323E3
:1042A800099306A92548FDF70BFEEB6943F4800343
:1042B800EB61EB6903F480030593059B204D214BCB
:1042C8002B606C60AC604FF08008C5F80C802C61E6
:1042D8006C61AC614FF48057EF612846FFF7EEFC44
:1042E800B5636E62184D194B2B6010236B60AC6080
:1042F800C5F80C802C616C61AC61EF612846FFF752
:10430800DDFC75636E62224621462120FDF76CFDB7
:104318002120FDF79DFD224621462220FDF764FD60
:104328002220FDF795FD0AB0BDE8F081001002409B
:10433800F000002000580040A0860100000C014059
:104348008401002058000240C801002044000240B7
:104358002DE9F04F89B0844B9A6942F004029A61C2
:104368009A6902F004020192019A9A6942F00802DD
:104378009A619A6902F008020292029A9A6942F0D6
:1043880010029A619B6903F010030393039B0023B7
:1043980005930693022607964FF0200ACDF810A041
:1043A80004A97248FDF78CFD4023049304A96F48C3
:1043B800FDF786FD4FF08008CDF8108004A96B4802
:1043C800FDF77EFD4FF48064049404A96848FDF766
:1043D80077FD4FF40063049304A96548FDF770FD69
:1043E8004FF48055049504A96148FDF769FD0495CB
:1043F80004A96048FDF764FD049604A95D48FDF72B
:104408005FFD012705974FF00409CDF8109004A926
:104418005648FDF755FD102504950DEB0501554847
:10442800FDF74EFDCDF810A00DEB05015148FDF745
:1044380047FD0323059304970DEB05014C48FDF751
:104448003FFD04970DEB05014A48FDF739FD4FF094
:10445800080BCDF810B00DEB05014548FDF730FD10
:1044680004960DEB05014248FDF72AFD04950DEB76
:1044780005013F48FDF724FDCDF810A00DEB05011F
:104488003B48FDF71DFDCDF810900DEB05013848B0
:10449800FDF716FDCDF810B00DEB05013548FDF719
:1044A8000FFDCDF810900DEB05013248FDF708FD22
:1044B8000596402304930DEB05012D48FDF700FDFB
:1044C800CDF810800DEB05012948FDF7F9FC4FF4F4
:1044D8008079CDF810900DEB05012548FDF7F0FC2B
:1044E800CDF810800DEB05012248FDF7E9FC049793
:1044F8000DEB05011D48FDF7E3FC04960DEB0501E6
:104508001A48FDF7DDFCCDF810900DEB05011948B0
:10451800FDF7D6FC4FF4007304930DEB0501154825
:10452800FDF7CEFC04940DEB05011248FDF7C8FC1D
:104538004FF4005304930DEB05010C48FDF7C0FC44
:104548004FF4804304930DEB05010848FDF7B8FCD0
:104558004FF4004304930DEB05010448FDF7B0FC4C
:1045680009B0BDE8F08F00BF00100240000C014008
:1045780000100140000801402DE9F04F99B0754B3B
:104588009A6942F400629A619A6902F4006201929F
:10459800019A9A6942F400529A619B6903F40053A4
:1045A8000293029B6C4EDFF8B891C6F80090002485
:1045B80074604FF02008C6F808804FF4FA6BC6F80C
:1045C8000CB034617461B4613046FDF76FFA1023A2
:1045D8001693179416A93046FDF79EFB60230F9398
:1045E8001094119408271297139414944FF400739D
:1045F800159322460FA93046FDF7AAFA04220FA9FF
:104608003046FDF7A5FA3A460FA93046FDF7A0FA5D
:104618004FF4006308934FF4806309930A94CDF82C
:104628002C800C940D940E940DEB08013046FDF788
:1046380047FB4A4DDFF82CA1C5F800A06C60C5F80F
:104648000880C5F80CB02C616C61AC612846FDF798
:104658002DFACDF858808023179316A92846FDF720
:104668005BFB04940523039303A92846FDF7B1F9DE
:1046780060230F93109411941297139414944FF489
:104688000073159322460FA92846FDF761FA042204
:104698000FA92846FDF75CFA3A460FA92846FDF708
:1046A80057FA4FF4006308934FF4806309930A9410
:1046B800CDF82C800C940D940E940DEB080128462F
:1046C800FDF7FEFADAF8443023F40043CAF8443020
:1046D800D9F8443023F40043C9F844302146284629
:1046E800FDF7B2FA04212846FDF7AEFA3946284606
:1046F800FDF7AAFA21462846FDF7D0FA04212846F4
:10470800FDF7CCFA39462846FDF7C8FA2146304667
:10471800FDF79AFA04213046FDF796FA39463046F5
:10472800FDF792FA21463046FDF7B8FA04213046E3
:10473800FDF7B4FA39463046FDF7B0FA2B68012286
:104748001A633268136843F00103136019B0BDE8B7
:10475800F08F00BF0010024044010020D402002066
:10476800002C0140003401402DE9F04186B0414E53
:10477800B36943F40073B361B36903F4007300933E
:10478800009B3D4C3D4B23604FF48073A360002594
:10479800E56065614FF44023E36165604FF005080B
:1047A800C4F810802046FDF7DFFE354A536843F40D
:1047B800802353604FF4C023059305A92046FDF7D5
:1047C800D5FA012304930E220292039302A92046EC
:1047D800FDF752FD02950227039702A92046FDF72F
:1047E8004BFD04970B2702970323039302A9204646
:1047F800FDF742FD0C2302930423039302A92046EC
:10480800FDF73AFD0723049310230293CDF80C809B
:1048180002A92046FDF730FD2268936843F400039F
:1048280043F480739360936843F001039360736962
:1048380043F001037361736903F001030193019B62
:10484800104B1D60C3F804800F4A9A600F4ADA6063
:1048580040F6A2221A601A6842F001021A602A463B
:1048680029463846FDF7C0FA3846FDF7F1FA06B092
:10487800BDE8F081001002400C0200200024014035
:1048880000000140080002404C2401408002002042
:10489800F0B585B0284B9A6942F480629A619B69A9
:1048A80003F480630093009B244C254B23604FF452
:1048B8008073A3600023E36063614FF46022E261C8
:1048C8006360052626612046FDF74EFE012303930B
:1048D8000F220192029301A92046FDF7CDFC0D237A
:1048E80001930225029501A92046FDF7C5FC039511
:1048F8000A2301930327029701A92046FDF7BCFC70
:104908000195042302930DEB03012046FDF7B4FC47
:10491800072303930197029601A92046FDF7ACFCF3
:1049280023689A6842F480729A609A6842F0010299
:104938009A6005B0F0BD00BF00100240C000002022
:104948000028014070B582B0104CF0232370552325
:1049580063700F4D6426009602232246A421284640
:10496800FEF774FA0A20FDF773FCFB23237000237B
:104978006370009602232246A4212846FEF766FAB1
:104988000A20FDF765FC02B070BD00BF540300208B
:10499800F000002030B583B0124A00231370124C87
:1049A800642500950123A4212046FEF74FFA05202F
:1049B800FDF74EFC009506230C4AA4212046FEF77D
:1049C80007FB10B90A4B00221A60094B1B68032B1E
:1049D80001D803B030BD3220FDF73AFCFFF7B2FF33
:1049E800F7E700BF54030020F0000020400000203B
:1049F800040000200D4B1B681333262B14D810B568
:104A080000240B4B1C700B4B1C7005E00A4B1C70F0
:104A18006420FDF71DFC0134072CF7DD002220215E
:104A28000648FDF748FBFEE7704700BF7403002007
:104A38004C000020580000204800002000080140D9
:104A480030B597B002250C950123109310231193CC
:104A58001395002414944FF4601315930CA8FCF7D5
:104A6800BDFB0F230793089509944FF480630A93BD
:104A78000B94294607A8FCF7D9FD01954FF440434C
:104A8800039301A8FDF722FBFCF78EFE084BA3FB5E
:104A980000308009FDF7E8F90420FDF7FBF922460C
:104AA80021464FF0FF30FDF79FF917B030BD00BF2A
:104AB800D34D6210000000002DE9F04F85B0FDF7DE
:104AC800A7FBAD4CA36943F00103A361A36903F0FD
:104AD80001030393039B0320FDF774F90022114699
:104AE8006FF00B00FDF780F9002211466FF00A0005
:104AF800FDF77AF9002211466FF00900FDF774F905
:104B0800002211466FF00400FDF76EF900221146ED
:104B18006FF00300FDF768F9002211466FF00100FD
:104B2800FDF762F9002211464FF0FF30FDF75CF9FE
:104B3800FFF786FF636923F001036361FFF708FC51
:104B4800FFF71AFDFFF710FEFFF7A2FE0122202152
:104B58008A48FDF7B0FA8A48FDF768FC8948FDF7EE
:104B680065FC082405E0884B1C706420FDF770FB89
:104B7800013C002CF7DA4FF0000A834B83F800A0C1
:104B8800012204218148FDF796FAFFF737FBFFF76A
:104B9800D9FE7F4B188AFCF7C7F801907D4B01229C
:104BA8001A70D34649E14FF47A785AE14FF47A748F
:104BB80066E14FF47A7642464B4620462946FBF793
:104BC80035FB04460D460022734BFBF775FF80B991
:104BD80063A3D3E9002320462946FBF74FFF0028AB
:104BE8005BD120462946FBF771FF044603E06B4E74
:104BF800E1E74FF47A740AF13103A34214DBAAF116
:104C0800310AA24510DC0BF13103B3420CDBABF1E6
:104C1800310BB34508DC624B1B68042B04D8614B8D
:104C28001E606342604A1360604B1A68604BA3FBC6
:104C38000213DB0803EB830303EB83039A422ED0B2
:104C480002214E48FDF730FA30B15A4B1B681BB9A8
:104C5800594B1B68002B73D0584B1D685849284680
:104C6800FCF758FA20B1574B1B681333262B73D91E
:104C780055492846FCF74EFA002800F0B180504903
:104C88002846FCF765FA002800F0AA803E4B05226A
:104C98001A704E4B06221A70AEE0404CABE70198F2
:104CA800FBF722FC30A3D3E90023FBF775FC804611
:104CB8008946374D288AFCF737F8FBF715FC2CA3F3
:104CC800D3E90023FBF768FC02460B4640464946F9
:104CD800FBF7ACFAFBF722FF804601903C49FBF753
:104CE80071FF3C49FCF778F83B49FBF76DFF074635
:104CF8003146022000F01EFD2146032000F01AFD77
:104D0800A989042000F016FD34492C4B1868FCF7DB
:104D180063F8FCF727FA0146052000F00BFD404632
:104D2800FCF720FA0146062000F004FD3846FCF79F
:104D380019FA0146072000F0FDFC00F001FD7FE7AD
:104D4800144B00221A7002210C48FDF7ADF9002817
:104D5800F9D1FFF74FFE7FE7FFF74CFE4CE000BFAD
:104D68000000000000408FC0AE47E17A14AEEF3F6C
:104D78007B14AE47E17A843F0010024000080140EE
:104D88000C020020C000002048000020000C014058
:104D9800800200205800002000408F4018FCFFFFD0
:104DA800040000206C000020680000205803002048
:104DB8001F85EB51740000207000002008000020BF
:104DC800CCCC06427403002000000C424C000020AA
:104DD80000E0CE44083748BE33330F420000C842D3
:104DE8006D4B1B6813F1320F80F2BF806B4B0522AD
:104DF8001A706B4B01221A7084EAE473A3EBE47314
:104E0800322B06DC86EAE673A3EBE673322B40F31B
:104E1800B280644B00221A60624B1A68624B9A4255
:104E280001D9FFF7E7FD614A136801331360604A4F
:104E3800136801331360A246B3460520FDF708FA4C
:104E4800FFF7A8FD5B4B93F80080A8F17F084FEAB5
:104E5800C808B8F57A7F3FF7A6AE574B9845B8BF54
:104E68009846564BC3F80080524B5C78803CE4006F
:104E7800B4F57A7F3FF79AAE4F4B9C42B8BF1C46B9
:104E88004F4B1C604B4B5B7903F001014D4A11708D
:104E9800C3F340034C4A13704C4D2868FBF712FBD0
:104EA80037A3D3E90023FBF777FB06460F464046B6
:104EB800FBF708FB34A3D3E90023FBF76DFB02469D
:104EC8000B4630463946FBF7B1F9FBF7FFFD0646BE
:104ED8002860314D2868FBF7F5FA29A3D3E90023A8
:104EE800FBF75AFB804689462046FBF7EBFA26A3D8
:104EF800D3E90023FBF750FB02460B4640464946E0
:104F0800FBF794F9FBF7E2FD2860FBF7DBFA0022D8
:104F18002F4BFBF741FB04460D463046FBF7D2FA10
:104F280000222B4BFBF738FB8046894602460B468E
:104F380020462946FBF778F906460F460022254BFE
:104F4800FBF7BAFD00287FF434AE11A3D3E90023A0
:104F580030463946FBF792FD00287FF448AE3046CC
:104F68003946FBF7B3FD064625E600230B4A1370C6
:104F78000B4A137040E70B4A1368013313604BE781
:104F8800CDCCCCCCCCCCEC3F9A9999999999B93F96
:104F98000000000000408FC074030020480000207B
:104FA8004C0000205C0300208038010058030020DA
:104FB800040000204000002018FCFFFF7C030020B4
:104FC8006803002078030020640300206C0300209D
:104FD8000000E03F00408F40774B02225A60774B39
:104FE8001B68B3F57A7F5EDB2DE9F041744B1A68D4
:104FF800744BA3FB02139B094FF47A7101FB132333
:105008000BBB714C2068FBF76FFA65A3D3E900234B
:10501800FBF7C2FA06460F466C4B9889FBF784FEED
:105028006B49FBF7D9FEFBF75FFA5FA3D3E90023CF
:10503800FBF7B2FA02460B4630463946FBF7F6F85C
:10504800FBF76CFD2060614B5889624B1C68001BA4
:10505800FBF738FA56A3D3E90023FBF79DFA0022A1
:105068000023FBF70BFD002852D1584B5889001B31
:10507800FBF728FA4EA3D3E90023FBF78DFA0022A9
:10508800554BFBF719FD002852D1544B1B68052BD3
:105098004ED8534B1B78002B4AD0524A536C43F4DA
:1050A8000043536449E00133444A1360474A9088F7
:1050B8004D490B68034403EBD3735B100B60D08836
:1050C8004A490B68034403EBD3735B100B601088E9
:1050D80047490B68034403EBD3735B100B6050889C
:1050E80044490B68034403EBD3735B100B6050898E
:1050F80038490B68034403EBD3735B100B601189C9
:105108003D4A13680B4403EBD3735B10136070477D
:105118002E4B5889001BFBF7D5F925A3D3E90023AB
:10512800FBF73AFA0022354BFBF7A8FC0028ACD075
:105138002C4A536C23F400435364244B18892E4B98
:105148001C68001BFBF7BEF919A3D3E90023FBF782
:1051580023FA00220023FBF791FC002852D11B4BB5
:105168001889001BFBF7AEF911A3D3E90023FBF75D
:1051780013FA0022184BFBF79FFC002852D1174B5B
:105188001B68052B4ED8164B1B78002B4AD01C4A9F
:10519800536C43F40043536449E000BFAFF300800D
:1051A800AE47E17A14AEEF3F7B14AE47E17A843F15
:1051B8007B14AE47E17A943F000002405C00002077
:1051C80050000020D34D621008000020800200200B
:1051D80017B9CE3C0C00002000002E40040000202F
:1051E800580000200034014014000020180000205E
:1051F8001C000020200000201000002000002EC00D
:10520800002C0140904B1889001BFBF75BF98CA31D
:10521800D3E90023FBF7C0F900228C4BFBF72EFCE7
:105228000028ACD08A4A536C23F40043536489495C
:105238008B6813F0200F0CBF012300238A6812F03B
:10524800400F0CBF01220022896811F0800F0CBFAB
:10525800012500258049886810F4806F0CBF012063
:1052680000208C6814F4006F0CBF012400248968A6
:1052780011F4805F02EB450203EB4203774EF35CC7
:1052880077490B600B6803F102030B600D68754BDF
:1052980083FB0572A2EBE57202EB42024FEA42077A
:1052A800A5EB07020A600CBF02220022224400EB91
:1052B8004202B05C6C4A10601068023010601068DE
:1052C80083FB0043A3EBE07303EB43035C00031B86
:1052D800136009685C488388644A12689A1AC3880C
:1052E800634800681B1A052934D8DFE801F0032356
:1052F80026292C2FD31A5F4A13605F4A136801339B
:1053080013605E4A14684CB35D4AA2FB0312120B89
:105318005C4909680131B2FBF1F001FB1022EAB9DE
:10532800B3FBF4F204FB1233EBB910215648FCF737
:10533800C8FE18E04F4B1A60DFE74E4B1A60DCE7F7
:105348004C4A1360D9E74B4A1360D6E79B1A494A7F
:105358001360D2E7474B00221A60CEE700221021E3
:105368004948FCF7A8FE494B18683D4B1B68052BBC
:1053780028D8DFE803F00312171B1F23C0F1000C25
:1053880004461846424B1968374B1B68052B50D802
:10539800DFE803F01D3D4145494C044640424FF0CB
:1053A800000CEFE7844640420024EBE74442844681
:1053B8000020E7E744424FF0000CE3E7C0F1000C9F
:1053C8000024DFE74FF0000C64466046DAE74D4200
:1053D8000F4619462D4B1B68002B40F3A1802D4B1F
:1053E8001E681F4B1B6805331E4A82FB03E2A2EBB3
:1053F800E37202EB42024FEA420EA3EB0E02052AC9
:1054080000F28980DFE802F0486E73787D820F46EB
:1054180049420025DEE70D4649420027DAE74F42B8
:105428000D460021D6E74F420025D3E74D4200271D
:10543800D0E700252F462946CCE700BFAFF3008010
:105448007B14AE47E17A943F8002002000002EC012
:10545800002C0140000C0140001001408058000859
:1054680060000020ABAAAA2A6400002014000020D3
:1054780018000020540000205000002048000020A0
:105488005917B7D14C0000200008014068000020DF
:105498006C00002070000020C6F10008B6461646D1
:1054A800304474440CEB08069A4B1B68002B40F3FD
:1054B800A180994B1B68994A126802F1050C984A19
:1054C80082FB0CE2A2EBEC7202EB42024FEA420EC4
:1054D800ACEB0E02052A00F28880DFE802F0586D76
:1054E80072777C81B64676424FF00008D8E7B0461E
:1054F80076424FF0000ED3E7C6F1000EB046002604
:10550800CEE7C6F1000E4FF00008C9E7C6F1000863
:105518004FF0000EC4E74FF00008C6464646BFE706
:10552800804B1E68C6F1000E7F4B1A6801327C4B17
:1055380083FB0283A3EBE27303EB43034FEA4308C5
:10554800A2EB0803052B1AD8DFE803F0031E060AAE
:105558000E14B0461E46A3E7F0464FF0000E9FE734
:10556800F046B64600269BE7334676469E464FF001
:10557800000895E7B04676464FF0000E90E74FF0EA
:105588000008C64646468BE74FF0000888E7C3F197
:1055980000089E461346194407EB0E0205EB080364
:1055A80040F2DE35A8425EDCA5F2BC75A842B8BF61
:1055B800284600F57A7558E09E465B424FF0000891
:1055C800E9E798465B424FF0000EE4E7C3F1000EAE
:1055D80098460023DFE7C3F1000E4FF00008DAE732
:1055E800C3F100084FF0000ED5E74FF00008C6469B
:1055F8004346D0E7484B1B68C3F1000E474A126880
:105608000132DFF81CC18CFB028CACEBE27C0CEBAA
:105618004C0C4FEA4C08A2EB080CBCF1050F1AD849
:10562800DFE80CF0031E060A0E1498466346B2E73C
:10563800F0464FF0000EAEE7F0469E460023AAE77C
:105648001A46734696464FF00008A4E798467346F4
:105658004FF0000E9FE74FF00008C64643469AE712
:105668004FF0000897E740F2C6753048456340F2AE
:10567800DE30844207DCA0F2BC708442B8BF044626
:1056880004F57A7401E040F2C6742848846340F255
:10569800DE30864207DCA0F2BC70B042B8BF3046AC
:1056A80000F57A7001E040F2C670204CE06340F2E9
:1056B800DE30814207DCA0F2BC708142B8BF0146EF
:1056C80001F57A7101E040F2C6711948416340F270
:1056D800DE318A4207DCA1F2BC718A42B8BF0A46B1
:1056E80002F57A7201E040F2C67211498A6340F20B
:1056F800DE32934207DCA2F2BC729342B8BF134673
:1057080003F57A7301E040F2C673094AD363BDE832
:10571800F08100BF6C0000207400002064000020AD
:10572800ABAAAA2A700000206000002000340140C3
:10573800002C0140014B23F810107047E4030020AF
:1057480070477047FEE7FEE7FEE7FEE770477047E1
:10575800704708B5FCF76EFDFCF7ADFB08BD00000F
:1057680008B50248FEF758F908BD00BFF000002050
:1057780008B50248FEF704FA08BD00BFF000002093
:1057880008B50248FEF79EFB08BD00BFC80100200F
:1057980008B50248FEF796FB08BD00BF840100204B
:1057A800002103E00B4B5B58435004310A480B4B74
:1057B80042189A42F6D30A4A02E0002342F8043B10
:1057C800084B9A42F9D3FEF7F3FC00F00FF8FFF705
:1057D80073F970479058000800000020240000204A
:1057E80024000020F4030020FEE7000070B5002626
:1057F8000C4D0D4C641BA410A64209D100F01AF8F8
:1058080000260A4D0A4C641BA410A64205D170BD9F
:1058180055F8043B98470136EEE755F8043B98479E
:105828000136F2E7885800088858000888580008A8
:105838008C580008F8B500BFF8BC08BC9E467047F5
:0C584800F8B500BFF8BC08BC9E467047D5
:1058540002030405060708090A0B0C0D0E0F1010AD
:105864000102000000000000000000000102030427
:1058740006070809000000000102030400000201F9
:045884000405030014
:045888000D02000805
:04588C00E901000826
:1058900000A24A046400000000002042D00700007B
:1058A000D0070000D0070000D0070000D00700009C
:0458B000D00700001D
:04000005080057A9EF
:00000001FF
